{"abi":[{"type":"constructor","inputs":[{"name":"name","type":"string","internalType":"string"},{"name":"symbol","type":"string","internalType":"string"},{"name":"baseTokenURI","type":"string","internalType":"string"}],"stateMutability":"nonpayable"},{"type":"function","name":"approve","inputs":[{"name":"to","type":"address","internalType":"address"},{"name":"tokenId","type":"uint256","internalType":"uint256"}],"outputs":[],"stateMutability":"nonpayable"},{"type":"function","name":"balanceOf","inputs":[{"name":"owner","type":"address","internalType":"address"}],"outputs":[{"name":"","type":"uint256","internalType":"uint256"}],"stateMutability":"view"},{"type":"function","name":"getApproved","inputs":[{"name":"tokenId","type":"uint256","internalType":"uint256"}],"outputs":[{"name":"","type":"address","internalType":"address"}],"stateMutability":"view"},{"type":"function","name":"isApprovedForAll","inputs":[{"name":"owner","type":"address","internalType":"address"},{"name":"operator","type":"address","internalType":"address"}],"outputs":[{"name":"","type":"bool","internalType":"bool"}],"stateMutability":"view"},{"type":"function","name":"mint","inputs":[{"name":"to","type":"address","internalType":"address"}],"outputs":[],"stateMutability":"nonpayable"},{"type":"function","name":"name","inputs":[],"outputs":[{"name":"","type":"string","internalType":"string"}],"stateMutability":"view"},{"type":"function","name":"nextTokenId","inputs":[],"outputs":[{"name":"","type":"uint256","internalType":"uint256"}],"stateMutability":"view"},{"type":"function","name":"owner","inputs":[],"outputs":[{"name":"","type":"address","internalType":"address"}],"stateMutability":"view"},{"type":"function","name":"ownerOf","inputs":[{"name":"tokenId","type":"uint256","internalType":"uint256"}],"outputs":[{"name":"","type":"address","internalType":"address"}],"stateMutability":"view"},{"type":"function","name":"renounceOwnership","inputs":[],"outputs":[],"stateMutability":"nonpayable"},{"type":"function","name":"safeTransferFrom","inputs":[{"name":"from","type":"address","internalType":"address"},{"name":"to","type":"address","internalType":"address"},{"name":"tokenId","type":"uint256","internalType":"uint256"}],"outputs":[],"stateMutability":"nonpayable"},{"type":"function","name":"safeTransferFrom","inputs":[{"name":"from","type":"address","internalType":"address"},{"name":"to","type":"address","internalType":"address"},{"name":"tokenId","type":"uint256","internalType":"uint256"},{"name":"data","type":"bytes","internalType":"bytes"}],"outputs":[],"stateMutability":"nonpayable"},{"type":"function","name":"setApprovalForAll","inputs":[{"name":"operator","type":"address","internalType":"address"},{"name":"approved","type":"bool","internalType":"bool"}],"outputs":[],"stateMutability":"nonpayable"},{"type":"function","name":"supportsInterface","inputs":[{"name":"interfaceId","type":"bytes4","internalType":"bytes4"}],"outputs":[{"name":"","type":"bool","internalType":"bool"}],"stateMutability":"view"},{"type":"function","name":"symbol","inputs":[],"outputs":[{"name":"","type":"string","internalType":"string"}],"stateMutability":"view"},{"type":"function","name":"tokenURI","inputs":[{"name":"tokenId","type":"uint256","internalType":"uint256"}],"outputs":[{"name":"","type":"string","internalType":"string"}],"stateMutability":"view"},{"type":"function","name":"transferFrom","inputs":[{"name":"from","type":"address","internalType":"address"},{"name":"to","type":"address","internalType":"address"},{"name":"tokenId","type":"uint256","internalType":"uint256"}],"outputs":[],"stateMutability":"nonpayable"},{"type":"function","name":"transferOwnership","inputs":[{"name":"newOwner","type":"address","internalType":"address"}],"outputs":[],"stateMutability":"nonpayable"},{"type":"event","name":"Approval","inputs":[{"name":"owner","type":"address","indexed":true,"internalType":"address"},{"name":"approved","type":"address","indexed":true,"internalType":"address"},{"name":"tokenId","type":"uint256","indexed":true,"internalType":"uint256"}],"anonymous":false},{"type":"event","name":"ApprovalForAll","inputs":[{"name":"owner","type":"address","indexed":true,"internalType":"address"},{"name":"operator","type":"address","indexed":true,"internalType":"address"},{"name":"approved","type":"bool","indexed":false,"internalType":"bool"}],"anonymous":false},{"type":"event","name":"OwnershipTransferred","inputs":[{"name":"previousOwner","type":"address","indexed":true,"internalType":"address"},{"name":"newOwner","type":"address","indexed":true,"internalType":"address"}],"anonymous":false},{"type":"event","name":"Transfer","inputs":[{"name":"from","type":"address","indexed":true,"internalType":"address"},{"name":"to","type":"address","indexed":true,"internalType":"address"},{"name":"tokenId","type":"uint256","indexed":true,"internalType":"uint256"}],"anonymous":false},{"type":"error","name":"ERC721IncorrectOwner","inputs":[{"name":"sender","type":"address","internalType":"address"},{"name":"tokenId","type":"uint256","internalType":"uint256"},{"name":"owner","type":"address","internalType":"address"}]},{"type":"error","name":"ERC721InsufficientApproval","inputs":[{"name":"operator","type":"address","internalType":"address"},{"name":"tokenId","type":"uint256","internalType":"uint256"}]},{"type":"error","name":"ERC721InvalidApprover","inputs":[{"name":"approver","type":"address","internalType":"address"}]},{"type":"error","name":"ERC721InvalidOperator","inputs":[{"name":"operator","type":"address","internalType":"address"}]},{"type":"error","name":"ERC721InvalidOwner","inputs":[{"name":"owner","type":"address","internalType":"address"}]},{"type":"error","name":"ERC721InvalidReceiver","inputs":[{"name":"receiver","type":"address","internalType":"address"}]},{"type":"error","name":"ERC721InvalidSender","inputs":[{"name":"sender","type":"address","internalType":"address"}]},{"type":"error","name":"ERC721NonexistentToken","inputs":[{"name":"tokenId","type":"uint256","internalType":"uint256"}]},{"type":"error","name":"OwnableInvalidOwner","inputs":[{"name":"owner","type":"address","internalType":"address"}]},{"type":"error","name":"OwnableUnauthorizedAccount","inputs":[{"name":"account","type":"address","internalType":"address"}]}],"bytecode":{"object":"0x608060405234801561000f575f5ffd5b5060405161141338038061141383398101604081905261002e91610186565b3383835f61003c8382610299565b5060016100498282610299565b5050506001600160a01b03811661007957604051631e4fbdf760e01b81525f600482015260240160405180910390fd5b61008281610098565b50600861008f8282610299565b50505050610353565b600680546001600160a01b038381166001600160a01b0319831681179093556040519116919082907f8be0079c531659141344cd1fd0a4f28419497f9722a3daafe3b4186f6b6457e0905f90a35050565b634e487b7160e01b5f52604160045260245ffd5b5f82601f83011261010c575f5ffd5b81516001600160401b03811115610125576101256100e9565b604051601f8201601f19908116603f011681016001600160401b0381118282101715610153576101536100e9565b60405281815283820160200185101561016a575f5ffd5b8160208501602083015e5f918101602001919091529392505050565b5f5f5f60608486031215610198575f5ffd5b83516001600160401b038111156101ad575f5ffd5b6101b9868287016100fd565b602086015190945090506001600160401b038111156101d6575f5ffd5b6101e2868287016100fd565b604086015190935090506001600160401b038111156101ff575f5ffd5b61020b868287016100fd565b9150509250925092565b600181811c9082168061022957607f821691505b60208210810361024757634e487b7160e01b5f52602260045260245ffd5b50919050565b601f82111561029457805f5260205f20601f840160051c810160208510156102725750805b601f840160051c820191505b81811015610291575f815560010161027e565b50505b505050565b81516001600160401b038111156102b2576102b26100e9565b6102c6816102c08454610215565b8461024d565b6020601f8211600181146102f8575f83156102e15750848201515b5f19600385901b1c1916600184901b178455610291565b5f84815260208120601f198516915b828110156103275787850151825560209485019460019092019101610307565b508482101561034457868401515f19600387901b60f8161c191681555b50505050600190811b01905550565b6110b3806103605f395ff3fe608060405234801561000f575f5ffd5b5060043610610111575f3560e01c8063715018a61161009e578063a22cb4651161006e578063a22cb46514610229578063b88d4fde1461023c578063c87b56dd1461024f578063e985e9c514610262578063f2fde38b14610275575f5ffd5b8063715018a6146101ff57806375794a3c146102075780638da5cb5b1461021057806395d89b4114610221575f5ffd5b806323b872dd116100e457806323b872dd1461019257806342842e0e146101a55780636352211e146101b85780636a627842146101cb57806370a08231146101de575f5ffd5b806301ffc9a71461011557806306fdde031461013d578063081812fc14610152578063095ea7b31461017d575b5f5ffd5b610128610123366004610d3c565b610288565b60405190151581526020015b60405180910390f35b6101456102d9565b6040516101349190610d85565b610165610160366004610d97565b610368565b6040516001600160a01b039091168152602001610134565b61019061018b366004610dc9565b61038f565b005b6101906101a0366004610df1565b61039e565b6101906101b3366004610df1565b61042c565b6101656101c6366004610d97565b61044b565b6101906101d9366004610e2b565b610455565b6101f16101ec366004610e2b565b610480565b604051908152602001610134565b6101906104c5565b6101f160075481565b6006546001600160a01b0316610165565b6101456104d8565b610190610237366004610e44565b6104e7565b61019061024a366004610e91565b6104f2565b61014561025d366004610d97565b61050a565b610128610270366004610f6e565b61056f565b610190610283366004610e2b565b61059c565b5f6001600160e01b031982166380ac58cd60e01b14806102b857506001600160e01b03198216635b5e139f60e01b145b806102d357506301ffc9a760e01b6001600160e01b03198316145b92915050565b60605f80546102e790610f9f565b80601f016020809104026020016040519081016040528092919081815260200182805461031390610f9f565b801561035e5780601f106103355761010080835404028352916020019161035e565b820191905f5260205f20905b81548152906001019060200180831161034157829003601f168201915b5050505050905090565b5f610372826105d9565b505f828152600460205260409020546001600160a01b03166102d3565b61039a828233610611565b5050565b6001600160a01b0382166103cc57604051633250574960e11b81525f60048201526024015b60405180910390fd5b5f6103d883833361061e565b9050836001600160a01b0316816001600160a01b031614610426576040516364283d7b60e01b81526001600160a01b03808616600483015260248201849052821660448201526064016103c3565b50505050565b61044683838360405180602001604052805f8152506104f2565b505050565b5f6102d3826105d9565b61045d610710565b6104698160075461073d565b60078054905f61047883610fd7565b919050555050565b5f6001600160a01b0382166104aa576040516322718ad960e21b81525f60048201526024016103c3565b506001600160a01b03165f9081526003602052604090205490565b6104cd610710565b6104d65f610756565b565b6060600180546102e790610f9f565b61039a3383836107a7565b6104fd84848461039e565b6104263385858585610845565b6060610515826105d9565b505f61051f61096d565b90505f81511161053d5760405180602001604052805f815250610568565b806105478461097c565b604051602001610558929190611012565b6040516020818303038152906040525b9392505050565b6001600160a01b039182165f90815260056020908152604080832093909416825291909152205460ff1690565b6105a4610710565b6001600160a01b0381166105cd57604051631e4fbdf760e01b81525f60048201526024016103c3565b6105d681610756565b50565b5f818152600260205260408120546001600160a01b0316806102d357604051637e27328960e01b8152600481018490526024016103c3565b6104468383836001610a0c565b5f828152600260205260408120546001600160a01b039081169083161561064a5761064a818486610b10565b6001600160a01b03811615610684576106655f855f5f610a0c565b6001600160a01b0381165f90815260036020526040902080545f190190555b6001600160a01b038516156106b2576001600160a01b0385165f908152600360205260409020805460010190555b5f8481526002602052604080822080546001600160a01b0319166001600160a01b0389811691821790925591518793918516917fddf252ad1be2c89b69c2b068fc378daa952ba7f163c4a11628f55a4df523b3ef91a4949350505050565b6006546001600160a01b031633146104d65760405163118cdaa760e01b81523360048201526024016103c3565b61039a828260405180602001604052805f815250610b74565b600680546001600160a01b038381166001600160a01b0319831681179093556040519116919082907f8be0079c531659141344cd1fd0a4f28419497f9722a3daafe3b4186f6b6457e0905f90a35050565b6001600160a01b0382166107d957604051630b61174360e31b81526001600160a01b03831660048201526024016103c3565b6001600160a01b038381165f81815260056020908152604080832094871680845294825291829020805460ff191686151590811790915591519182527f17307eab39ab6107e8899845ad3d59bd9653f200f220920489ca2b5937696c31910160405180910390a3505050565b6001600160a01b0383163b1561096657604051630a85bd0160e11b81526001600160a01b0384169063150b7a0290610887908890889087908790600401611026565b6020604051808303815f875af19250505080156108c1575060408051601f3d908101601f191682019092526108be91810190611062565b60015b610928573d8080156108ee576040519150601f19603f3d011682016040523d82523d5f602084013e6108f3565b606091505b5080515f0361092057604051633250574960e11b81526001600160a01b03851660048201526024016103c3565b805181602001fd5b6001600160e01b03198116630a85bd0160e11b1461096457604051633250574960e11b81526001600160a01b03851660048201526024016103c3565b505b5050505050565b6060600880546102e790610f9f565b60605f61098883610b8b565b60010190505f8167ffffffffffffffff8111156109a7576109a7610e7d565b6040519080825280601f01601f1916602001820160405280156109d1576020820181803683370190505b5090508181016020015b5f19016f181899199a1a9b1b9c1cb0b131b232b360811b600a86061a8153600a85049450846109db57509392505050565b8080610a2057506001600160a01b03821615155b15610ae1575f610a2f846105d9565b90506001600160a01b03831615801590610a5b5750826001600160a01b0316816001600160a01b031614155b8015610a6e5750610a6c818461056f565b155b15610a975760405163a9fbf51f60e01b81526001600160a01b03841660048201526024016103c3565b8115610adf5783856001600160a01b0316826001600160a01b03167f8c5be1e5ebec7d5bd14f71427d1e84f3dd0314c0f7b2291e5b200ac8c7c3b92560405160405180910390a45b505b50505f90815260046020526040902080546001600160a01b0319166001600160a01b0392909216919091179055565b610b1b838383610c62565b610446576001600160a01b038316610b4957604051637e27328960e01b8152600481018290526024016103c3565b60405163177e802f60e01b81526001600160a01b0383166004820152602481018290526044016103c3565b610b7e8383610cc6565b610446335f858585610845565b5f8072184f03e93ff9f4daa797ed6e38ed64bf6a1f0160401b8310610bc95772184f03e93ff9f4daa797ed6e38ed64bf6a1f0160401b830492506040015b6d04ee2d6d415b85acef81000000008310610bf5576d04ee2d6d415b85acef8100000000830492506020015b662386f26fc100008310610c1357662386f26fc10000830492506010015b6305f5e1008310610c2b576305f5e100830492506008015b6127108310610c3f57612710830492506004015b60648310610c51576064830492506002015b600a83106102d35760010192915050565b5f6001600160a01b03831615801590610cbe5750826001600160a01b0316846001600160a01b03161480610c9b5750610c9b848461056f565b80610cbe57505f828152600460205260409020546001600160a01b038481169116145b949350505050565b6001600160a01b038216610cef57604051633250574960e11b81525f60048201526024016103c3565b5f610cfb83835f61061e565b90506001600160a01b03811615610446576040516339e3563760e11b81525f60048201526024016103c3565b6001600160e01b0319811681146105d6575f5ffd5b5f60208284031215610d4c575f5ffd5b813561056881610d27565b5f81518084528060208401602086015e5f602082860101526020601f19601f83011685010191505092915050565b602081525f6105686020830184610d57565b5f60208284031215610da7575f5ffd5b5035919050565b80356001600160a01b0381168114610dc4575f5ffd5b919050565b5f5f60408385031215610dda575f5ffd5b610de383610dae565b946020939093013593505050565b5f5f5f60608486031215610e03575f5ffd5b610e0c84610dae565b9250610e1a60208501610dae565b929592945050506040919091013590565b5f60208284031215610e3b575f5ffd5b61056882610dae565b5f5f60408385031215610e55575f5ffd5b610e5e83610dae565b915060208301358015158114610e72575f5ffd5b809150509250929050565b634e487b7160e01b5f52604160045260245ffd5b5f5f5f5f60808587031215610ea4575f5ffd5b610ead85610dae565b9350610ebb60208601610dae565b925060408501359150606085013567ffffffffffffffff811115610edd575f5ffd5b8501601f81018713610eed575f5ffd5b803567ffffffffffffffff811115610f0757610f07610e7d565b604051601f8201601f19908116603f0116810167ffffffffffffffff81118282101715610f3657610f36610e7d565b604052818152828201602001891015610f4d575f5ffd5b816020840160208301375f6020838301015280935050505092959194509250565b5f5f60408385031215610f7f575f5ffd5b610f8883610dae565b9150610f9660208401610dae565b90509250929050565b600181811c90821680610fb357607f821691505b602082108103610fd157634e487b7160e01b5f52602260045260245ffd5b50919050565b5f60018201610ff457634e487b7160e01b5f52601160045260245ffd5b5060010190565b5f81518060208401855e5f93019283525090919050565b5f610cbe6110208386610ffb565b84610ffb565b6001600160a01b03858116825284166020820152604081018390526080606082018190525f9061105890830184610d57565b9695505050505050565b5f60208284031215611072575f5ffd5b815161056881610d2756fea264697066735822122009ffad2395acc90b45321dea61aed3cf6b56168a7735bed8e7c8dd733a59833c64736f6c634300081c0033","linkReferences":{}},"methodIdentifiers":{"approve(address,uint256)":"095ea7b3","balanceOf(address)":"70a08231","getApproved(uint256)":"081812fc","isApprovedForAll(address,address)":"e985e9c5","mint(address)":"6a627842","name()":"06fdde03","nextTokenId()":"75794a3c","owner()":"8da5cb5b","ownerOf(uint256)":"6352211e","renounceOwnership()":"715018a6","safeTransferFrom(address,address,uint256)":"42842e0e","safeTransferFrom(address,address,uint256,bytes)":"b88d4fde","setApprovalForAll(address,bool)":"a22cb465","supportsInterface(bytes4)":"01ffc9a7","symbol()":"95d89b41","tokenURI(uint256)":"c87b56dd","transferFrom(address,address,uint256)":"23b872dd","transferOwnership(address)":"f2fde38b"},"id":15}